{
  "_format": "hh-sol-artifact-1",
  "contractName": "HealthBk",
  "sourceName": "contracts/Health.sol",
  "abi": [
    {
      "inputs": [
        {
          "internalType": "address",
          "name": "_address",
          "type": "address"
        },
        {
          "internalType": "string",
          "name": "index",
          "type": "string"
        }
      ],
      "name": "approveAccess",
      "outputs": [],
      "stateMutability": "nonpayable",
      "type": "function"
    },
    {
      "inputs": [
        {
          "internalType": "string",
          "name": "index",
          "type": "string"
        }
      ],
      "name": "canAccess",
      "outputs": [
        {
          "internalType": "bool",
          "name": "",
          "type": "bool"
        }
      ],
      "stateMutability": "view",
      "type": "function"
    },
    {
      "inputs": [
        {
          "internalType": "string",
          "name": "_name",
          "type": "string"
        },
        {
          "internalType": "uint256",
          "name": "_number",
          "type": "uint256"
        },
        {
          "internalType": "uint256",
          "name": "_age",
          "type": "uint256"
        }
      ],
      "name": "createDoctor",
      "outputs": [],
      "stateMutability": "nonpayable",
      "type": "function"
    },
    {
      "inputs": [
        {
          "internalType": "string",
          "name": "_name",
          "type": "string"
        },
        {
          "internalType": "uint256",
          "name": "_number",
          "type": "uint256"
        },
        {
          "internalType": "uint256",
          "name": "_age",
          "type": "uint256"
        }
      ],
      "name": "createUser",
      "outputs": [],
      "stateMutability": "nonpayable",
      "type": "function"
    },
    {
      "inputs": [],
      "name": "getAllFiles",
      "outputs": [
        {
          "components": [
            {
              "internalType": "string",
              "name": "fileCid",
              "type": "string"
            },
            {
              "internalType": "string",
              "name": "fileName",
              "type": "string"
            },
            {
              "internalType": "string",
              "name": "createdAt",
              "type": "string"
            },
            {
              "internalType": "address[]",
              "name": "approvals",
              "type": "address[]"
            }
          ],
          "internalType": "struct HealthBk.file[]",
          "name": "",
          "type": "tuple[]"
        }
      ],
      "stateMutability": "view",
      "type": "function"
    },
    {
      "inputs": [
        {
          "internalType": "string",
          "name": "index",
          "type": "string"
        }
      ],
      "name": "getApprovals",
      "outputs": [
        {
          "internalType": "address[]",
          "name": "",
          "type": "address[]"
        }
      ],
      "stateMutability": "view",
      "type": "function"
    },
    {
      "inputs": [
        {
          "internalType": "string",
          "name": "index",
          "type": "string"
        }
      ],
      "name": "getFile",
      "outputs": [
        {
          "components": [
            {
              "internalType": "string",
              "name": "fileCid",
              "type": "string"
            },
            {
              "internalType": "string",
              "name": "fileName",
              "type": "string"
            },
            {
              "internalType": "string",
              "name": "createdAt",
              "type": "string"
            },
            {
              "internalType": "address[]",
              "name": "approvals",
              "type": "address[]"
            }
          ],
          "internalType": "struct HealthBk.file",
          "name": "",
          "type": "tuple"
        }
      ],
      "stateMutability": "view",
      "type": "function"
    },
    {
      "inputs": [
        {
          "internalType": "string",
          "name": "_hash",
          "type": "string"
        },
        {
          "internalType": "string",
          "name": "_name",
          "type": "string"
        },
        {
          "internalType": "string",
          "name": "_timestamp",
          "type": "string"
        }
      ],
      "name": "uploadFile",
      "outputs": [],
      "stateMutability": "nonpayable",
      "type": "function"
    }
  ],
  "bytecode": "0x60806040526000805534801561001457600080fd5b50611e7e806100246000396000f3fe608060405234801561001057600080fd5b50600436106100885760003560e01c8063e0876aa81161005b578063e0876aa814610111578063e393115414610141578063e4ecb7dd14610171578063ff24b5d51461018d57610088565b806308ea7d211461008d5780637c8b397a146100a957806392bb481a146100d9578063d60993ae146100f5575b600080fd5b6100a760048036038101906100a2919061110b565b6101ab565b005b6100c360048036038101906100be919061117f565b6102f2565b6040516100d091906112bc565b60405180910390f35b6100f360048036038101906100ee91906112de565b6103a4565b005b61010f600480360381019061010a919061110b565b6105e7565b005b61012b600480360381019061012691906114d3565b6106b8565b6040516101389190611682565b60405180910390f35b61015b6004803603810190610156919061117f565b610934565b60405161016891906116bf565b60405180910390f35b61018b60048036038101906101869190611706565b610a58565b005b610195610ade565b6040516101a2919061189c565b60405180910390f35b60008067ffffffffffffffff8111156101c7576101c66113a8565b5b6040519080825280602002602001820160405280156101fa57816020015b60608152602001906001900390816101e55790505b509050604051806080016040528086868080601f016020809104026020016040519081016040528093929190818152602001838380828437600081840152601f19601f82011690508083019250505050505050815260200184815260200183815260200182815250600160003373ffffffffffffffffffffffffffffffffffffffff1673ffffffffffffffffffffffffffffffffffffffff16815260200190815260200160002060008201518160000190816102b69190611aca565b50602082015181600101556040820151816002015560608201518160030190805190602001906102e7929190610ed0565b509050505050505050565b606060038383604051610306929190611bcc565b908152602001604051809103902060030180548060200260200160405190810160405280929190818152602001828054801561039757602002820191906000526020600020905b8160009054906101000a900473ffffffffffffffffffffffffffffffffffffffff1673ffffffffffffffffffffffffffffffffffffffff168152602001906001019080831161034d575b5050505050905092915050565b60008067ffffffffffffffff8111156103c0576103bf6113a8565b5b6040519080825280602002602001820160405280156103ee5781602001602082028036833780820191505090505b509050604051806080016040528088888080601f016020809104026020016040519081016040528093929190818152602001838380828437600081840152601f19601f82011690508083019250505050505050815260200186868080601f016020809104026020016040519081016040528093929190818152602001838380828437600081840152601f19601f82011690508083019250505050505050815260200184848080601f016020809104026020016040519081016040528093929190818152602001838380828437600081840152601f19601f82011690508083019250505050505050815260200182815250600388886040516104f0929190611bcc565b908152602001604051809103902060008201518160000190816105139190611aca565b5060208201518160010190816105299190611aca565b50604082015181600201908161053f9190611aca565b50606082015181600301908051906020019061055c929190610f29565b50905050600160003373ffffffffffffffffffffffffffffffffffffffff1673ffffffffffffffffffffffffffffffffffffffff1681526020019081526020016000206003018787909180600181540180825580915050600190039060005260206000200160009091929091929091929091925091826105dd929190611bf0565b5050505050505050565b604051806060016040528085858080601f016020809104026020016040519081016040528093929190818152602001838380828437600081840152601f19601f82011690508083019250505050505050815260200183815260200182815250600260003373ffffffffffffffffffffffffffffffffffffffff1673ffffffffffffffffffffffffffffffffffffffff168152602001908152602001600020600082015181600001908161069a9190611aca565b50602082015181600101556040820151816002015590505050505050565b6106c0610fb3565b6003826040516106d09190611cf1565b90815260200160405180910390206040518060800160405290816000820180546106f9906118ed565b80601f0160208091040260200160405190810160405280929190818152602001828054610725906118ed565b80156107725780601f1061074757610100808354040283529160200191610772565b820191906000526020600020905b81548152906001019060200180831161075557829003601f168201915b5050505050815260200160018201805461078b906118ed565b80601f01602080910402602001604051908101604052809291908181526020018280546107b7906118ed565b80156108045780601f106107d957610100808354040283529160200191610804565b820191906000526020600020905b8154815290600101906020018083116107e757829003601f168201915b5050505050815260200160028201805461081d906118ed565b80601f0160208091040260200160405190810160405280929190818152602001828054610849906118ed565b80156108965780601f1061086b57610100808354040283529160200191610896565b820191906000526020600020905b81548152906001019060200180831161087957829003601f168201915b505050505081526020016003820180548060200260200160405190810160405280929190818152602001828054801561092457602002820191906000526020600020905b8160009054906101000a900473ffffffffffffffffffffffffffffffffffffffff1673ffffffffffffffffffffffffffffffffffffffff16815260200190600101908083116108da575b5050505050815250509050919050565b60008060038484604051610949929190611bcc565b9081526020016040518091039020600301805490500361096c5760009050610a52565b60005b60038484604051610981929190611bcc565b908152602001604051809103902060030180549050811015610a4c573373ffffffffffffffffffffffffffffffffffffffff16600385856040516109c6929190611bcc565b908152602001604051809103902060030182815481106109e9576109e8611d08565b5b9060005260206000200160009054906101000a900473ffffffffffffffffffffffffffffffffffffffff1673ffffffffffffffffffffffffffffffffffffffff1603610a39576001915050610a52565b8080610a4490611d66565b91505061096f565b50600090505b92915050565b600381604051610a689190611cf1565b9081526020016040518091039020600301829080600181540180825580915050600190039060005260206000200160009091909190916101000a81548173ffffffffffffffffffffffffffffffffffffffff021916908373ffffffffffffffffffffffffffffffffffffffff1602179055505050565b60606000600160003373ffffffffffffffffffffffffffffffffffffffff1673ffffffffffffffffffffffffffffffffffffffff1681526020019081526020016000206003018054905067ffffffffffffffff811115610b4157610b406113a8565b5b604051908082528060200260200182016040528015610b7a57816020015b610b67610fb3565b815260200190600190039081610b5f5790505b50905060005b600160003373ffffffffffffffffffffffffffffffffffffffff1673ffffffffffffffffffffffffffffffffffffffff16815260200190815260200160002060030180549050811015610ec8576003600160003373ffffffffffffffffffffffffffffffffffffffff1673ffffffffffffffffffffffffffffffffffffffff1681526020019081526020016000206003018281548110610c2357610c22611d08565b5b90600052602060002001604051610c3a9190611e31565b9081526020016040518091039020604051806080016040529081600082018054610c63906118ed565b80601f0160208091040260200160405190810160405280929190818152602001828054610c8f906118ed565b8015610cdc5780601f10610cb157610100808354040283529160200191610cdc565b820191906000526020600020905b815481529060010190602001808311610cbf57829003601f168201915b50505050508152602001600182018054610cf5906118ed565b80601f0160208091040260200160405190810160405280929190818152602001828054610d21906118ed565b8015610d6e5780601f10610d4357610100808354040283529160200191610d6e565b820191906000526020600020905b815481529060010190602001808311610d5157829003601f168201915b50505050508152602001600282018054610d87906118ed565b80601f0160208091040260200160405190810160405280929190818152602001828054610db3906118ed565b8015610e005780601f10610dd557610100808354040283529160200191610e00565b820191906000526020600020905b815481529060010190602001808311610de357829003601f168201915b5050505050815260200160038201805480602002602001604051908101604052809291908181526020018280548015610e8e57602002820191906000526020600020905b8160009054906101000a900473ffffffffffffffffffffffffffffffffffffffff1673ffffffffffffffffffffffffffffffffffffffff1681526020019060010190808311610e44575b505050505081525050828281518110610eaa57610ea9611d08565b5b60200260200101819052508080610ec090611d66565b915050610b80565b508091505090565b828054828255906000526020600020908101928215610f18579160200282015b82811115610f17578251829081610f079190611aca565b5091602001919060010190610ef0565b5b509050610f259190610fdb565b5090565b828054828255906000526020600020908101928215610fa2579160200282015b82811115610fa15782518260006101000a81548173ffffffffffffffffffffffffffffffffffffffff021916908373ffffffffffffffffffffffffffffffffffffffff16021790555091602001919060010190610f49565b5b509050610faf9190610fff565b5090565b6040518060800160405280606081526020016060815260200160608152602001606081525090565b5b80821115610ffb5760008181610ff2919061101c565b50600101610fdc565b5090565b5b80821115611018576000816000905550600101611000565b5090565b508054611028906118ed565b6000825580601f1061103a5750611059565b601f0160209004906000526020600020908101906110589190610fff565b5b50565b6000604051905090565b600080fd5b600080fd5b600080fd5b600080fd5b600080fd5b60008083601f84011261109557611094611070565b5b8235905067ffffffffffffffff8111156110b2576110b1611075565b5b6020830191508360018202830111156110ce576110cd61107a565b5b9250929050565b6000819050919050565b6110e8816110d5565b81146110f357600080fd5b50565b600081359050611105816110df565b92915050565b6000806000806060858703121561112557611124611066565b5b600085013567ffffffffffffffff8111156111435761114261106b565b5b61114f8782880161107f565b94509450506020611162878288016110f6565b9250506040611173878288016110f6565b91505092959194509250565b6000806020838503121561119657611195611066565b5b600083013567ffffffffffffffff8111156111b4576111b361106b565b5b6111c08582860161107f565b92509250509250929050565b600081519050919050565b600082825260208201905092915050565b6000819050602082019050919050565b600073ffffffffffffffffffffffffffffffffffffffff82169050919050565b6000611223826111f8565b9050919050565b61123381611218565b82525050565b6000611245838361122a565b60208301905092915050565b6000602082019050919050565b6000611269826111cc565b61127381856111d7565b935061127e836111e8565b8060005b838110156112af5781516112968882611239565b97506112a183611251565b925050600181019050611282565b5085935050505092915050565b600060208201905081810360008301526112d6818461125e565b905092915050565b600080600080600080606087890312156112fb576112fa611066565b5b600087013567ffffffffffffffff8111156113195761131861106b565b5b61132589828a0161107f565b9650965050602087013567ffffffffffffffff8111156113485761134761106b565b5b61135489828a0161107f565b9450945050604087013567ffffffffffffffff8111156113775761137661106b565b5b61138389828a0161107f565b92509250509295509295509295565b600080fd5b6000601f19601f8301169050919050565b7f4e487b7100000000000000000000000000000000000000000000000000000000600052604160045260246000fd5b6113e082611397565b810181811067ffffffffffffffff821117156113ff576113fe6113a8565b5b80604052505050565b600061141261105c565b905061141e82826113d7565b919050565b600067ffffffffffffffff82111561143e5761143d6113a8565b5b61144782611397565b9050602081019050919050565b82818337600083830152505050565b600061147661147184611423565b611408565b90508281526020810184848401111561149257611491611392565b5b61149d848285611454565b509392505050565b600082601f8301126114ba576114b9611070565b5b81356114ca848260208601611463565b91505092915050565b6000602082840312156114e9576114e8611066565b5b600082013567ffffffffffffffff8111156115075761150661106b565b5b611513848285016114a5565b91505092915050565b600081519050919050565b600082825260208201905092915050565b60005b8381101561155657808201518184015260208101905061153b565b60008484015250505050565b600061156d8261151c565b6115778185611527565b9350611587818560208601611538565b61159081611397565b840191505092915050565b600082825260208201905092915050565b60006115b7826111cc565b6115c1818561159b565b93506115cc836111e8565b8060005b838110156115fd5781516115e48882611239565b97506115ef83611251565b9250506001810190506115d0565b5085935050505092915050565b600060808301600083015184820360008601526116278282611562565b915050602083015184820360208601526116418282611562565b9150506040830151848203604086015261165b8282611562565b9150506060830151848203606086015261167582826115ac565b9150508091505092915050565b6000602082019050818103600083015261169c818461160a565b905092915050565b60008115159050919050565b6116b9816116a4565b82525050565b60006020820190506116d460008301846116b0565b92915050565b6116e381611218565b81146116ee57600080fd5b50565b600081359050611700816116da565b92915050565b6000806040838503121561171d5761171c611066565b5b600061172b858286016116f1565b925050602083013567ffffffffffffffff81111561174c5761174b61106b565b5b611758858286016114a5565b9150509250929050565b600081519050919050565b600082825260208201905092915050565b6000819050602082019050919050565b600060808301600083015184820360008601526117ab8282611562565b915050602083015184820360208601526117c58282611562565b915050604083015184820360408601526117df8282611562565b915050606083015184820360608601526117f982826115ac565b9150508091505092915050565b6000611812838361178e565b905092915050565b6000602082019050919050565b600061183282611762565b61183c818561176d565b93508360208202850161184e8561177e565b8060005b8581101561188a578484038952815161186b8582611806565b94506118768361181a565b925060208a01995050600181019050611852565b50829750879550505050505092915050565b600060208201905081810360008301526118b68184611827565b905092915050565b7f4e487b7100000000000000000000000000000000000000000000000000000000600052602260045260246000fd5b6000600282049050600182168061190557607f821691505b602082108103611918576119176118be565b5b50919050565b60008190508160005260206000209050919050565b60006020601f8301049050919050565b600082821b905092915050565b6000600883026119807fffffffffffffffffffffffffffffffffffffffffffffffffffffffffffffffff82611943565b61198a8683611943565b95508019841693508086168417925050509392505050565b6000819050919050565b60006119c76119c26119bd846110d5565b6119a2565b6110d5565b9050919050565b6000819050919050565b6119e1836119ac565b6119f56119ed826119ce565b848454611950565b825550505050565b600090565b611a0a6119fd565b611a158184846119d8565b505050565b5b81811015611a3957611a2e600082611a02565b600181019050611a1b565b5050565b601f821115611a7e57611a4f8161191e565b611a5884611933565b81016020851015611a67578190505b611a7b611a7385611933565b830182611a1a565b50505b505050565b600082821c905092915050565b6000611aa160001984600802611a83565b1980831691505092915050565b6000611aba8383611a90565b9150826002028217905092915050565b611ad38261151c565b67ffffffffffffffff811115611aec57611aeb6113a8565b5b611af682546118ed565b611b01828285611a3d565b600060209050601f831160018114611b345760008415611b22578287015190505b611b2c8582611aae565b865550611b94565b601f198416611b428661191e565b60005b82811015611b6a57848901518255600182019150602085019450602081019050611b45565b86831015611b875784890151611b83601f891682611a90565b8355505b6001600288020188555050505b505050505050565b600081905092915050565b6000611bb38385611b9c565b9350611bc0838584611454565b82840190509392505050565b6000611bd9828486611ba7565b91508190509392505050565b600082905092915050565b611bfa8383611be5565b67ffffffffffffffff811115611c1357611c126113a8565b5b611c1d82546118ed565b611c28828285611a3d565b6000601f831160018114611c575760008415611c45578287013590505b611c4f8582611aae565b865550611cb7565b601f198416611c658661191e565b60005b82811015611c8d57848901358255600182019150602085019450602081019050611c68565b86831015611caa5784890135611ca6601f891682611a90565b8355505b6001600288020188555050505b50505050505050565b6000611ccb8261151c565b611cd58185611b9c565b9350611ce5818560208601611538565b80840191505092915050565b6000611cfd8284611cc0565b915081905092915050565b7f4e487b7100000000000000000000000000000000000000000000000000000000600052603260045260246000fd5b7f4e487b7100000000000000000000000000000000000000000000000000000000600052601160045260246000fd5b6000611d71826110d5565b91507fffffffffffffffffffffffffffffffffffffffffffffffffffffffffffffffff8203611da357611da2611d37565b5b600182019050919050565b60008154611dbb816118ed565b611dc58186611b9c565b94506001821660008114611de05760018114611df557611e28565b60ff1983168652811515820286019350611e28565b611dfe8561191e565b60005b83811015611e2057815481890152600182019150602081019050611e01565b838801955050505b50505092915050565b6000611e3d8284611dae565b91508190509291505056fea2646970667358221220c17a89fe5ff5eaefa27a1c294e135dfb913f0c707e1c72f1d362097fe578ad9064736f6c63430008110033",
  "linkReferences": {},
  "deployedLinkReferences": {}
}